:020000040000FA
:10000000831671308F008601031789018312031351
:100010000130A2008030A3000430A4000330A5000A
:100020002208230486003720A40B17281C2802303E
:10003000A2070310A30C10280230A20722082304F1
:100040008600372023280230A2070310A30D2208C0
:10005000230486003720A50B23280828D030A000D1
:10006000D030A100A10B3228A00B302808002E2090
:080070002E202E202E20080096
:04007800003400341C
:02400E00D528B3
:02401000FF3F70
:00000001FF
