:020000040000FA
:10000000831671308F008601031789018312031351
:100010000230A4000230A500A030A2000130A300ED
:1000200022082304860043200310A20C0310A30D12
:1000300022082304860043200310A20DA30DA40B65
:1000400010282228A030A2000830A3002208230490
:10005000860043202B280310A20C0310A30C2208B7
:100060002304860043200310A20D0310A30CA50B4C
:1000700026280828D030A000D030A100A10B3E28AF
:10008000A00B3C2808003A203A203A203A200800E9
:040090000034003404
:02400E00D528B3
:02401000FF3F70
:00000001FF
